{
	"如何使用Solidity/demo2_1.sol": {
		"Manager": {
			"abi": [
				{
					"inputs": [],
					"name": "batteryLevel",
					"outputs": [
						{
							"internalType": "uint256",
							"name": "",
							"type": "uint256"
						}
					],
					"stateMutability": "view",
					"type": "function"
				},
				{
					"inputs": [],
					"name": "drive",
					"outputs": [
						{
							"internalType": "uint256",
							"name": "",
							"type": "uint256"
						}
					],
					"stateMutability": "view",
					"type": "function"
				},
				{
					"inputs": [],
					"name": "foo",
					"outputs": [],
					"stateMutability": "nonpayable",
					"type": "function"
				},
				{
					"inputs": [],
					"name": "get",
					"outputs": [],
					"stateMutability": "nonpayable",
					"type": "function"
				},
				{
					"inputs": [],
					"name": "speed",
					"outputs": [
						{
							"internalType": "uint256",
							"name": "",
							"type": "uint256"
						}
					],
					"stateMutability": "view",
					"type": "function"
				}
			],
			"devdoc": {
				"kind": "dev",
				"methods": {},
				"version": 1
			},
			"evm": {
				"assembly": "    /* \"\\xe5\\xa6\\x82\\xe4\\xbd\\x95\\xe4\\xbd\\xbf\\xe7\\x94\\xa8Solidity/demo2_1.sol\":1245:1452  contract Manager is Person,Employee {... */\n  mstore(0x40, 0x80)\n  callvalue\n  dup1\n  iszero\n  tag_1\n  jumpi\n  0x00\n  dup1\n  revert\ntag_1:\n  pop\n    /* \"\\xe5\\xa6\\x82\\xe4\\xbd\\x95\\xe4\\xbd\\xbf\\xe7\\x94\\xa8Solidity/demo2_1.sol\":996:998  20 */\n  0x14\n    /* \"\\xe5\\xa6\\x82\\xe4\\xbd\\x95\\xe4\\xbd\\xbf\\xe7\\x94\\xa8Solidity/demo2_1.sol\":988:993  speed */\n  0x00\n    /* \"\\xe5\\xa6\\x82\\xe4\\xbd\\x95\\xe4\\xbd\\xbf\\xe7\\x94\\xa8Solidity/demo2_1.sol\":988:998  speed = 20 */\n  dup2\n  swap1\n  sstore\n  pop\n    /* \"\\xe5\\xa6\\x82\\xe4\\xbd\\x95\\xe4\\xbd\\xbf\\xe7\\x94\\xa8Solidity/demo2_1.sol\":1162:1164  20 */\n  0x14\n    /* \"\\xe5\\xa6\\x82\\xe4\\xbd\\x95\\xe4\\xbd\\xbf\\xe7\\x94\\xa8Solidity/demo2_1.sol\":1154:1159  drive */\n  0x01\n    /* \"\\xe5\\xa6\\x82\\xe4\\xbd\\x95\\xe4\\xbd\\xbf\\xe7\\x94\\xa8Solidity/demo2_1.sol\":1154:1164  drive = 20 */\n  dup2\n  swap1\n  sstore\n  pop\n    /* \"\\xe5\\xa6\\x82\\xe4\\xbd\\x95\\xe4\\xbd\\xbf\\xe7\\x94\\xa8Solidity/demo2_1.sol\":1245:1452  contract Manager is Person,Employee {... */\n  dataSize(sub_0)\n  dup1\n  dataOffset(sub_0)\n  0x00\n  codecopy\n  0x00\n  return\nstop\n\nsub_0: assembly {\n        /* \"\\xe5\\xa6\\x82\\xe4\\xbd\\x95\\xe4\\xbd\\xbf\\xe7\\x94\\xa8Solidity/demo2_1.sol\":1245:1452  contract Manager is Person,Employee {... */\n      mstore(0x40, 0x80)\n      callvalue\n      dup1\n      iszero\n      tag_1\n      jumpi\n      0x00\n      dup1\n      revert\n    tag_1:\n      pop\n      jumpi(tag_2, lt(calldatasize, 0x04))\n      shr(0xe0, calldataload(0x00))\n      dup1\n      0x6d4ce63c\n      eq\n      tag_3\n      jumpi\n      dup1\n      0x9d822510\n      eq\n      tag_4\n      jumpi\n      dup1\n      0xa54580f2\n      eq\n      tag_5\n      jumpi\n      dup1\n      0xc20906ac\n      eq\n      tag_6\n      jumpi\n      dup1\n      0xc2985578\n      eq\n      tag_7\n      jumpi\n    tag_2:\n      0x00\n      dup1\n      revert\n        /* \"\\xe5\\xa6\\x82\\xe4\\xbd\\x95\\xe4\\xbd\\xbf\\xe7\\x94\\xa8Solidity/demo2_1.sol\":1321:1391  function get() public  {... */\n    tag_3:\n      tag_8\n      tag_9\n      jump\t// in\n    tag_8:\n      stop\n        /* \"\\xe5\\xa6\\x82\\xe4\\xbd\\x95\\xe4\\xbd\\xbf\\xe7\\x94\\xa8Solidity/demo2_1.sol\":1288:1312  uint public batteryLevel */\n    tag_4:\n      tag_10\n      tag_11\n      jump\t// in\n    tag_10:\n      mload(0x40)\n      tag_12\n      swap2\n      swap1\n      tag_13\n      jump\t// in\n    tag_12:\n      mload(0x40)\n      dup1\n      swap2\n      sub\n      swap1\n      return\n        /* \"\\xe5\\xa6\\x82\\xe4\\xbd\\x95\\xe4\\xbd\\xbf\\xe7\\x94\\xa8Solidity/demo2_1.sol\":1104:1121  uint public drive */\n    tag_5:\n      tag_14\n      tag_15\n      jump\t// in\n    tag_14:\n      mload(0x40)\n      tag_16\n      swap2\n      swap1\n      tag_13\n      jump\t// in\n    tag_16:\n      mload(0x40)\n      dup1\n      swap2\n      sub\n      swap1\n      return\n        /* \"\\xe5\\xa6\\x82\\xe4\\xbd\\x95\\xe4\\xbd\\xbf\\xe7\\x94\\xa8Solidity/demo2_1.sol\":938:955  uint public speed */\n    tag_6:\n      tag_17\n      tag_18\n      jump\t// in\n    tag_17:\n      mload(0x40)\n      tag_19\n      swap2\n      swap1\n      tag_13\n      jump\t// in\n    tag_19:\n      mload(0x40)\n      dup1\n      swap2\n      sub\n      swap1\n      return\n        /* \"\\xe5\\xa6\\x82\\xe4\\xbd\\x95\\xe4\\xbd\\xbf\\xe7\\x94\\xa8Solidity/demo2_1.sol\":1399:1449  function foo() public override(Person,Employee) {} */\n    tag_7:\n      tag_20\n      tag_21\n      jump\t// in\n    tag_20:\n      stop\n        /* \"\\xe5\\xa6\\x82\\xe4\\xbd\\x95\\xe4\\xbd\\xbf\\xe7\\x94\\xa8Solidity/demo2_1.sol\":1321:1391  function get() public  {... */\n    tag_9:\n        /* \"\\xe5\\xa6\\x82\\xe4\\xbd\\x95\\xe4\\xbd\\xbf\\xe7\\x94\\xa8Solidity/demo2_1.sol\":1378:1383  speed */\n      sload(0x00)\n        /* \"\\xe5\\xa6\\x82\\xe4\\xbd\\x95\\xe4\\xbd\\xbf\\xe7\\x94\\xa8Solidity/demo2_1.sol\":1370:1375  drive */\n      sload(0x01)\n        /* \"\\xe5\\xa6\\x82\\xe4\\xbd\\x95\\xe4\\xbd\\xbf\\xe7\\x94\\xa8Solidity/demo2_1.sol\":1370:1383  drive + speed */\n      tag_23\n      swap2\n      swap1\n      tag_24\n      jump\t// in\n    tag_23:\n        /* \"\\xe5\\xa6\\x82\\xe4\\xbd\\x95\\xe4\\xbd\\xbf\\xe7\\x94\\xa8Solidity/demo2_1.sol\":1355:1367  batteryLevel */\n      0x02\n        /* \"\\xe5\\xa6\\x82\\xe4\\xbd\\x95\\xe4\\xbd\\xbf\\xe7\\x94\\xa8Solidity/demo2_1.sol\":1355:1383  batteryLevel = drive + speed */\n      dup2\n      swap1\n      sstore\n      pop\n        /* \"\\xe5\\xa6\\x82\\xe4\\xbd\\x95\\xe4\\xbd\\xbf\\xe7\\x94\\xa8Solidity/demo2_1.sol\":1321:1391  function get() public  {... */\n      jump\t// out\n        /* \"\\xe5\\xa6\\x82\\xe4\\xbd\\x95\\xe4\\xbd\\xbf\\xe7\\x94\\xa8Solidity/demo2_1.sol\":1288:1312  uint public batteryLevel */\n    tag_11:\n      sload(0x02)\n      dup2\n      jump\t// out\n        /* \"\\xe5\\xa6\\x82\\xe4\\xbd\\x95\\xe4\\xbd\\xbf\\xe7\\x94\\xa8Solidity/demo2_1.sol\":1104:1121  uint public drive */\n    tag_15:\n      sload(0x01)\n      dup2\n      jump\t// out\n        /* \"\\xe5\\xa6\\x82\\xe4\\xbd\\x95\\xe4\\xbd\\xbf\\xe7\\x94\\xa8Solidity/demo2_1.sol\":938:955  uint public speed */\n    tag_18:\n      sload(0x00)\n      dup2\n      jump\t// out\n        /* \"\\xe5\\xa6\\x82\\xe4\\xbd\\x95\\xe4\\xbd\\xbf\\xe7\\x94\\xa8Solidity/demo2_1.sol\":1399:1449  function foo() public override(Person,Employee) {} */\n    tag_21:\n      jump\t// out\n        /* \"#utility.yul\":7:84   */\n    tag_26:\n        /* \"#utility.yul\":44:51   */\n      0x00\n        /* \"#utility.yul\":73:78   */\n      dup2\n        /* \"#utility.yul\":62:78   */\n      swap1\n      pop\n        /* \"#utility.yul\":7:84   */\n      swap2\n      swap1\n      pop\n      jump\t// out\n        /* \"#utility.yul\":90:208   */\n    tag_27:\n        /* \"#utility.yul\":177:201   */\n      tag_32\n        /* \"#utility.yul\":195:200   */\n      dup2\n        /* \"#utility.yul\":177:201   */\n      tag_26\n      jump\t// in\n    tag_32:\n        /* \"#utility.yul\":172:175   */\n      dup3\n        /* \"#utility.yul\":165:202   */\n      mstore\n        /* \"#utility.yul\":90:208   */\n      pop\n      pop\n      jump\t// out\n        /* \"#utility.yul\":214:436   */\n    tag_13:\n        /* \"#utility.yul\":307:311   */\n      0x00\n        /* \"#utility.yul\":345:347   */\n      0x20\n        /* \"#utility.yul\":334:343   */\n      dup3\n        /* \"#utility.yul\":330:348   */\n      add\n        /* \"#utility.yul\":322:348   */\n      swap1\n      pop\n        /* \"#utility.yul\":358:429   */\n      tag_34\n        /* \"#utility.yul\":426:427   */\n      0x00\n        /* \"#utility.yul\":415:424   */\n      dup4\n        /* \"#utility.yul\":411:428   */\n      add\n        /* \"#utility.yul\":402:408   */\n      dup5\n        /* \"#utility.yul\":358:429   */\n      tag_27\n      jump\t// in\n    tag_34:\n        /* \"#utility.yul\":214:436   */\n      swap3\n      swap2\n      pop\n      pop\n      jump\t// out\n        /* \"#utility.yul\":442:622   */\n    tag_28:\n        /* \"#utility.yul\":490:567   */\n      0x4e487b7100000000000000000000000000000000000000000000000000000000\n        /* \"#utility.yul\":487:488   */\n      0x00\n        /* \"#utility.yul\":480:568   */\n      mstore\n        /* \"#utility.yul\":587:591   */\n      0x11\n        /* \"#utility.yul\":584:585   */\n      0x04\n        /* \"#utility.yul\":577:592   */\n      mstore\n        /* \"#utility.yul\":611:615   */\n      0x24\n        /* \"#utility.yul\":608:609   */\n      0x00\n        /* \"#utility.yul\":601:616   */\n      revert\n        /* \"#utility.yul\":628:819   */\n    tag_24:\n        /* \"#utility.yul\":668:671   */\n      0x00\n        /* \"#utility.yul\":687:707   */\n      tag_37\n        /* \"#utility.yul\":705:706   */\n      dup3\n        /* \"#utility.yul\":687:707   */\n      tag_26\n      jump\t// in\n    tag_37:\n        /* \"#utility.yul\":682:707   */\n      swap2\n      pop\n        /* \"#utility.yul\":721:741   */\n      tag_38\n        /* \"#utility.yul\":739:740   */\n      dup4\n        /* \"#utility.yul\":721:741   */\n      tag_26\n      jump\t// in\n    tag_38:\n        /* \"#utility.yul\":716:741   */\n      swap3\n      pop\n        /* \"#utility.yul\":764:765   */\n      dup3\n        /* \"#utility.yul\":761:762   */\n      dup3\n        /* \"#utility.yul\":757:766   */\n      add\n        /* \"#utility.yul\":750:766   */\n      swap1\n      pop\n        /* \"#utility.yul\":785:788   */\n      dup1\n        /* \"#utility.yul\":782:783   */\n      dup3\n        /* \"#utility.yul\":779:789   */\n      gt\n        /* \"#utility.yul\":776:812   */\n      iszero\n      tag_39\n      jumpi\n        /* \"#utility.yul\":792:810   */\n      tag_40\n      tag_28\n      jump\t// in\n    tag_40:\n        /* \"#utility.yul\":776:812   */\n    tag_39:\n        /* \"#utility.yul\":628:819   */\n      swap3\n      swap2\n      pop\n      pop\n      jump\t// out\n\n    auxdata: 0xa26469706673582212200de9dece871409a29f4f67207da630e5214cf65acb6bc922eee971ae813f6e8864736f6c634300081a0033\n}\n",
				"bytecode": {
					"linkReferences": {},
					"object": "6080604052348015600e575f80fd5b5060145f8190555060146001819055506101b88061002b5f395ff3fe608060405234801561000f575f80fd5b5060043610610055575f3560e01c80636d4ce63c146100595780639d82251014610063578063a54580f214610081578063c20906ac1461009f578063c2985578146100bd575b5f80fd5b6100616100c7565b005b61006b6100de565b6040516100789190610109565b60405180910390f35b6100896100e4565b6040516100969190610109565b60405180910390f35b6100a76100ea565b6040516100b49190610109565b60405180910390f35b6100c56100ef565b005b5f546001546100d6919061014f565b600281905550565b60025481565b60015481565b5f5481565b565b5f819050919050565b610103816100f1565b82525050565b5f60208201905061011c5f8301846100fa565b92915050565b7f4e487b71000000000000000000000000000000000000000000000000000000005f52601160045260245ffd5b5f610159826100f1565b9150610164836100f1565b925082820190508082111561017c5761017b610122565b5b9291505056fea26469706673582212200de9dece871409a29f4f67207da630e5214cf65acb6bc922eee971ae813f6e8864736f6c634300081a0033",
					"opcodes": "PUSH1 0x80 PUSH1 0x40 MSTORE CALLVALUE DUP1 ISZERO PUSH1 0xE JUMPI PUSH0 DUP1 REVERT JUMPDEST POP PUSH1 0x14 PUSH0 DUP2 SWAP1 SSTORE POP PUSH1 0x14 PUSH1 0x1 DUP2 SWAP1 SSTORE POP PUSH2 0x1B8 DUP1 PUSH2 0x2B PUSH0 CODECOPY PUSH0 RETURN INVALID PUSH1 0x80 PUSH1 0x40 MSTORE CALLVALUE DUP1 ISZERO PUSH2 0xF JUMPI PUSH0 DUP1 REVERT JUMPDEST POP PUSH1 0x4 CALLDATASIZE LT PUSH2 0x55 JUMPI PUSH0 CALLDATALOAD PUSH1 0xE0 SHR DUP1 PUSH4 0x6D4CE63C EQ PUSH2 0x59 JUMPI DUP1 PUSH4 0x9D822510 EQ PUSH2 0x63 JUMPI DUP1 PUSH4 0xA54580F2 EQ PUSH2 0x81 JUMPI DUP1 PUSH4 0xC20906AC EQ PUSH2 0x9F JUMPI DUP1 PUSH4 0xC2985578 EQ PUSH2 0xBD JUMPI JUMPDEST PUSH0 DUP1 REVERT JUMPDEST PUSH2 0x61 PUSH2 0xC7 JUMP JUMPDEST STOP JUMPDEST PUSH2 0x6B PUSH2 0xDE JUMP JUMPDEST PUSH1 0x40 MLOAD PUSH2 0x78 SWAP2 SWAP1 PUSH2 0x109 JUMP JUMPDEST PUSH1 0x40 MLOAD DUP1 SWAP2 SUB SWAP1 RETURN JUMPDEST PUSH2 0x89 PUSH2 0xE4 JUMP JUMPDEST PUSH1 0x40 MLOAD PUSH2 0x96 SWAP2 SWAP1 PUSH2 0x109 JUMP JUMPDEST PUSH1 0x40 MLOAD DUP1 SWAP2 SUB SWAP1 RETURN JUMPDEST PUSH2 0xA7 PUSH2 0xEA JUMP JUMPDEST PUSH1 0x40 MLOAD PUSH2 0xB4 SWAP2 SWAP1 PUSH2 0x109 JUMP JUMPDEST PUSH1 0x40 MLOAD DUP1 SWAP2 SUB SWAP1 RETURN JUMPDEST PUSH2 0xC5 PUSH2 0xEF JUMP JUMPDEST STOP JUMPDEST PUSH0 SLOAD PUSH1 0x1 SLOAD PUSH2 0xD6 SWAP2 SWAP1 PUSH2 0x14F JUMP JUMPDEST PUSH1 0x2 DUP2 SWAP1 SSTORE POP JUMP JUMPDEST PUSH1 0x2 SLOAD DUP2 JUMP JUMPDEST PUSH1 0x1 SLOAD DUP2 JUMP JUMPDEST PUSH0 SLOAD DUP2 JUMP JUMPDEST JUMP JUMPDEST PUSH0 DUP2 SWAP1 POP SWAP2 SWAP1 POP JUMP JUMPDEST PUSH2 0x103 DUP2 PUSH2 0xF1 JUMP JUMPDEST DUP3 MSTORE POP POP JUMP JUMPDEST PUSH0 PUSH1 0x20 DUP3 ADD SWAP1 POP PUSH2 0x11C PUSH0 DUP4 ADD DUP5 PUSH2 0xFA JUMP JUMPDEST SWAP3 SWAP2 POP POP JUMP JUMPDEST PUSH32 0x4E487B7100000000000000000000000000000000000000000000000000000000 PUSH0 MSTORE PUSH1 0x11 PUSH1 0x4 MSTORE PUSH1 0x24 PUSH0 REVERT JUMPDEST PUSH0 PUSH2 0x159 DUP3 PUSH2 0xF1 JUMP JUMPDEST SWAP2 POP PUSH2 0x164 DUP4 PUSH2 0xF1 JUMP JUMPDEST SWAP3 POP DUP3 DUP3 ADD SWAP1 POP DUP1 DUP3 GT ISZERO PUSH2 0x17C JUMPI PUSH2 0x17B PUSH2 0x122 JUMP JUMPDEST JUMPDEST SWAP3 SWAP2 POP POP JUMP INVALID LOG2 PUSH5 0x6970667358 0x22 SLT KECCAK256 0xD 0xE9 0xDE 0xCE DUP8 EQ MULMOD LOG2 SWAP16 0x4F PUSH8 0x207DA630E5214CF6 GAS 0xCB PUSH12 0xC922EEE971AE813F6E886473 PUSH16 0x6C634300081A00330000000000000000 "
				},
				"gasEstimates": {
					"creation": {
						"codeDepositCost": "88000",
						"executionCost": "44360",
						"totalCost": "132360"
					},
					"external": {
						"batteryLevel()": "2425",
						"drive()": "2447",
						"foo()": "209",
						"get()": "infinite",
						"speed()": "2468"
					}
				},
				"methodIdentifiers": {
					"batteryLevel()": "9d822510",
					"drive()": "a54580f2",
					"foo()": "c2985578",
					"get()": "6d4ce63c",
					"speed()": "c20906ac"
				}
			},
			"storageLayout": {
				"storage": [
					{
						"astId": 57,
						"contract": "如何使用Solidity/demo2_1.sol:Manager",
						"label": "speed",
						"offset": 0,
						"slot": "0",
						"type": "t_uint256"
					},
					{
						"astId": 76,
						"contract": "如何使用Solidity/demo2_1.sol:Manager",
						"label": "drive",
						"offset": 0,
						"slot": "1",
						"type": "t_uint256"
					},
					{
						"astId": 99,
						"contract": "如何使用Solidity/demo2_1.sol:Manager",
						"label": "batteryLevel",
						"offset": 0,
						"slot": "2",
						"type": "t_uint256"
					}
				],
				"types": {
					"t_uint256": {
						"encoding": "inplace",
						"label": "uint256",
						"numberOfBytes": "32"
					}
				}
			},
			"userdoc": {
				"kind": "user",
				"methods": {},
				"version": 1
			}
		}
	}
}