{
	"如何使用Solidity/demo2_1.sol": {
		"Person": {
			"abi": [
				{
					"inputs": [],
					"stateMutability": "nonpayable",
					"type": "constructor"
				},
				{
					"inputs": [],
					"name": "foo",
					"outputs": [],
					"stateMutability": "nonpayable",
					"type": "function"
				},
				{
					"inputs": [],
					"name": "speed",
					"outputs": [
						{
							"internalType": "uint256",
							"name": "",
							"type": "uint256"
						}
					],
					"stateMutability": "view",
					"type": "function"
				}
			],
			"devdoc": {
				"kind": "dev",
				"methods": {},
				"version": 1
			},
			"evm": {
				"assembly": "    /* \"\\xe5\\xa6\\x82\\xe4\\xbd\\x95\\xe4\\xbd\\xbf\\xe7\\x94\\xa8Solidity/demo2_1.sol\":915:1075  contract Person {... */\n  mstore(0x40, 0x80)\n    /* \"\\xe5\\xa6\\x82\\xe4\\xbd\\x95\\xe4\\xbd\\xbf\\xe7\\x94\\xa8Solidity/demo2_1.sol\":962:1006  constructor()  {... */\n  callvalue\n  dup1\n  iszero\n  tag_1\n  jumpi\n  0x00\n  dup1\n  revert\ntag_1:\n  pop\n    /* \"\\xe5\\xa6\\x82\\xe4\\xbd\\x95\\xe4\\xbd\\xbf\\xe7\\x94\\xa8Solidity/demo2_1.sol\":996:998  20 */\n  0x14\n    /* \"\\xe5\\xa6\\x82\\xe4\\xbd\\x95\\xe4\\xbd\\xbf\\xe7\\x94\\xa8Solidity/demo2_1.sol\":988:993  speed */\n  0x00\n    /* \"\\xe5\\xa6\\x82\\xe4\\xbd\\x95\\xe4\\xbd\\xbf\\xe7\\x94\\xa8Solidity/demo2_1.sol\":988:998  speed = 20 */\n  dup2\n  swap1\n  sstore\n  pop\n    /* \"\\xe5\\xa6\\x82\\xe4\\xbd\\x95\\xe4\\xbd\\xbf\\xe7\\x94\\xa8Solidity/demo2_1.sol\":915:1075  contract Person {... */\n  dataSize(sub_0)\n  dup1\n  dataOffset(sub_0)\n  0x00\n  codecopy\n  0x00\n  return\nstop\n\nsub_0: assembly {\n        /* \"\\xe5\\xa6\\x82\\xe4\\xbd\\x95\\xe4\\xbd\\xbf\\xe7\\x94\\xa8Solidity/demo2_1.sol\":915:1075  contract Person {... */\n      mstore(0x40, 0x80)\n      callvalue\n      dup1\n      iszero\n      tag_1\n      jumpi\n      0x00\n      dup1\n      revert\n    tag_1:\n      pop\n      jumpi(tag_2, lt(calldatasize, 0x04))\n      shr(0xe0, calldataload(0x00))\n      dup1\n      0xc20906ac\n      eq\n      tag_3\n      jumpi\n      dup1\n      0xc2985578\n      eq\n      tag_4\n      jumpi\n    tag_2:\n      0x00\n      dup1\n      revert\n        /* \"\\xe5\\xa6\\x82\\xe4\\xbd\\x95\\xe4\\xbd\\xbf\\xe7\\x94\\xa8Solidity/demo2_1.sol\":938:955  uint public speed */\n    tag_3:\n      tag_5\n      tag_6\n      jump\t// in\n    tag_5:\n      mload(0x40)\n      tag_7\n      swap2\n      swap1\n      tag_8\n      jump\t// in\n    tag_7:\n      mload(0x40)\n      dup1\n      swap2\n      sub\n      swap1\n      return\n        /* \"\\xe5\\xa6\\x82\\xe4\\xbd\\x95\\xe4\\xbd\\xbf\\xe7\\x94\\xa8Solidity/demo2_1.sol\":1014:1072  function foo() virtual public {... */\n    tag_4:\n      tag_9\n      tag_10\n      jump\t// in\n    tag_9:\n      stop\n        /* \"\\xe5\\xa6\\x82\\xe4\\xbd\\x95\\xe4\\xbd\\xbf\\xe7\\x94\\xa8Solidity/demo2_1.sol\":938:955  uint public speed */\n    tag_6:\n      sload(0x00)\n      dup2\n      jump\t// out\n        /* \"\\xe5\\xa6\\x82\\xe4\\xbd\\x95\\xe4\\xbd\\xbf\\xe7\\x94\\xa8Solidity/demo2_1.sol\":1014:1072  function foo() virtual public {... */\n    tag_10:\n        /* \"\\xe5\\xa6\\x82\\xe4\\xbd\\x95\\xe4\\xbd\\xbf\\xe7\\x94\\xa8Solidity/demo2_1.sol\":1063:1064  1 */\n      0x01\n        /* \"\\xe5\\xa6\\x82\\xe4\\xbd\\x95\\xe4\\xbd\\xbf\\xe7\\x94\\xa8Solidity/demo2_1.sol\":1055:1060  speed */\n      0x00\n        /* \"\\xe5\\xa6\\x82\\xe4\\xbd\\x95\\xe4\\xbd\\xbf\\xe7\\x94\\xa8Solidity/demo2_1.sol\":1055:1064  speed = 1 */\n      dup2\n      swap1\n      sstore\n      pop\n        /* \"\\xe5\\xa6\\x82\\xe4\\xbd\\x95\\xe4\\xbd\\xbf\\xe7\\x94\\xa8Solidity/demo2_1.sol\":1014:1072  function foo() virtual public {... */\n      jump\t// out\n        /* \"#utility.yul\":7:84   */\n    tag_12:\n        /* \"#utility.yul\":44:51   */\n      0x00\n        /* \"#utility.yul\":73:78   */\n      dup2\n        /* \"#utility.yul\":62:78   */\n      swap1\n      pop\n        /* \"#utility.yul\":7:84   */\n      swap2\n      swap1\n      pop\n      jump\t// out\n        /* \"#utility.yul\":90:208   */\n    tag_13:\n        /* \"#utility.yul\":177:201   */\n      tag_17\n        /* \"#utility.yul\":195:200   */\n      dup2\n        /* \"#utility.yul\":177:201   */\n      tag_12\n      jump\t// in\n    tag_17:\n        /* \"#utility.yul\":172:175   */\n      dup3\n        /* \"#utility.yul\":165:202   */\n      mstore\n        /* \"#utility.yul\":90:208   */\n      pop\n      pop\n      jump\t// out\n        /* \"#utility.yul\":214:436   */\n    tag_8:\n        /* \"#utility.yul\":307:311   */\n      0x00\n        /* \"#utility.yul\":345:347   */\n      0x20\n        /* \"#utility.yul\":334:343   */\n      dup3\n        /* \"#utility.yul\":330:348   */\n      add\n        /* \"#utility.yul\":322:348   */\n      swap1\n      pop\n        /* \"#utility.yul\":358:429   */\n      tag_19\n        /* \"#utility.yul\":426:427   */\n      0x00\n        /* \"#utility.yul\":415:424   */\n      dup4\n        /* \"#utility.yul\":411:428   */\n      add\n        /* \"#utility.yul\":402:408   */\n      dup5\n        /* \"#utility.yul\":358:429   */\n      tag_13\n      jump\t// in\n    tag_19:\n        /* \"#utility.yul\":214:436   */\n      swap3\n      swap2\n      pop\n      pop\n      jump\t// out\n\n    auxdata: 0xa2646970667358221220e422b3253fdabf6df9a1f1ffcb8cce73fb26bf86f5817356b1add90bafb8c17c64736f6c634300081a0033\n}\n",
				"bytecode": {
					"linkReferences": {},
					"object": "6080604052348015600e575f80fd5b5060145f8190555060c78060215f395ff3fe6080604052348015600e575f80fd5b50600436106030575f3560e01c8063c20906ac146034578063c298557814604e575b5f80fd5b603a6056565b60405160459190607a565b60405180910390f35b6054605b565b005b5f5481565b60015f81905550565b5f819050919050565b6074816064565b82525050565b5f602082019050608b5f830184606d565b9291505056fea2646970667358221220e422b3253fdabf6df9a1f1ffcb8cce73fb26bf86f5817356b1add90bafb8c17c64736f6c634300081a0033",
					"opcodes": "PUSH1 0x80 PUSH1 0x40 MSTORE CALLVALUE DUP1 ISZERO PUSH1 0xE JUMPI PUSH0 DUP1 REVERT JUMPDEST POP PUSH1 0x14 PUSH0 DUP2 SWAP1 SSTORE POP PUSH1 0xC7 DUP1 PUSH1 0x21 PUSH0 CODECOPY PUSH0 RETURN INVALID PUSH1 0x80 PUSH1 0x40 MSTORE CALLVALUE DUP1 ISZERO PUSH1 0xE JUMPI PUSH0 DUP1 REVERT JUMPDEST POP PUSH1 0x4 CALLDATASIZE LT PUSH1 0x30 JUMPI PUSH0 CALLDATALOAD PUSH1 0xE0 SHR DUP1 PUSH4 0xC20906AC EQ PUSH1 0x34 JUMPI DUP1 PUSH4 0xC2985578 EQ PUSH1 0x4E JUMPI JUMPDEST PUSH0 DUP1 REVERT JUMPDEST PUSH1 0x3A PUSH1 0x56 JUMP JUMPDEST PUSH1 0x40 MLOAD PUSH1 0x45 SWAP2 SWAP1 PUSH1 0x7A JUMP JUMPDEST PUSH1 0x40 MLOAD DUP1 SWAP2 SUB SWAP1 RETURN JUMPDEST PUSH1 0x54 PUSH1 0x5B JUMP JUMPDEST STOP JUMPDEST PUSH0 SLOAD DUP2 JUMP JUMPDEST PUSH1 0x1 PUSH0 DUP2 SWAP1 SSTORE POP JUMP JUMPDEST PUSH0 DUP2 SWAP1 POP SWAP2 SWAP1 POP JUMP JUMPDEST PUSH1 0x74 DUP2 PUSH1 0x64 JUMP JUMPDEST DUP3 MSTORE POP POP JUMP JUMPDEST PUSH0 PUSH1 0x20 DUP3 ADD SWAP1 POP PUSH1 0x8B PUSH0 DUP4 ADD DUP5 PUSH1 0x6D JUMP JUMPDEST SWAP3 SWAP2 POP POP JUMP INVALID LOG2 PUSH5 0x6970667358 0x22 SLT KECCAK256 0xE4 0x22 0xB3 0x25 EXTCODEHASH 0xDA 0xBF PUSH14 0xF9A1F1FFCB8CCE73FB26BF86F581 PUSH20 0x56B1ADD90BAFB8C17C64736F6C634300081A0033 "
				},
				"gasEstimates": {
					"creation": {
						"codeDepositCost": "39800",
						"executionCost": "22204",
						"totalCost": "62004"
					},
					"external": {
						"foo()": "22256",
						"speed()": "2402"
					}
				},
				"methodIdentifiers": {
					"foo()": "c2985578",
					"speed()": "c20906ac"
				}
			},
			"storageLayout": {
				"storage": [
					{
						"astId": 57,
						"contract": "如何使用Solidity/demo2_1.sol:Person",
						"label": "speed",
						"offset": 0,
						"slot": "0",
						"type": "t_uint256"
					}
				],
				"types": {
					"t_uint256": {
						"encoding": "inplace",
						"label": "uint256",
						"numberOfBytes": "32"
					}
				}
			},
			"userdoc": {
				"kind": "user",
				"methods": {},
				"version": 1
			}
		}
	}
}