{
	"如何使用Solidity/FirstApp.sol": {
		"FirstApp": {
			"abi": [
				{
					"inputs": [],
					"name": "count",
					"outputs": [
						{
							"internalType": "uint256",
							"name": "",
							"type": "uint256"
						}
					],
					"stateMutability": "view",
					"type": "function"
				},
				{
					"inputs": [],
					"name": "dec",
					"outputs": [],
					"stateMutability": "nonpayable",
					"type": "function"
				},
				{
					"inputs": [],
					"name": "get",
					"outputs": [
						{
							"internalType": "uint256",
							"name": "",
							"type": "uint256"
						}
					],
					"stateMutability": "view",
					"type": "function"
				},
				{
					"inputs": [],
					"name": "inc",
					"outputs": [],
					"stateMutability": "nonpayable",
					"type": "function"
				}
			],
			"devdoc": {
				"kind": "dev",
				"methods": {},
				"version": 1
			},
			"evm": {
				"assembly": "    /* \"\\xe5\\xa6\\x82\\xe4\\xbd\\x95\\xe4\\xbd\\xbf\\xe7\\x94\\xa8Solidity/FirstApp.sol\":150:389  contract FirstApp {... */\n  mstore(0x40, 0x80)\n  callvalue\n  dup1\n  iszero\n  tag_1\n  jumpi\n  0x00\n  dup1\n  revert\ntag_1:\n  pop\n  dataSize(sub_0)\n  dup1\n  dataOffset(sub_0)\n  0x00\n  codecopy\n  0x00\n  return\nstop\n\nsub_0: assembly {\n        /* \"\\xe5\\xa6\\x82\\xe4\\xbd\\x95\\xe4\\xbd\\xbf\\xe7\\x94\\xa8Solidity/FirstApp.sol\":150:389  contract FirstApp {... */\n      mstore(0x40, 0x80)\n      callvalue\n      dup1\n      iszero\n      tag_1\n      jumpi\n      0x00\n      dup1\n      revert\n    tag_1:\n      pop\n      jumpi(tag_2, lt(calldatasize, 0x04))\n      shr(0xe0, calldataload(0x00))\n      dup1\n      0x06661abd\n      eq\n      tag_3\n      jumpi\n      dup1\n      0x371303c0\n      eq\n      tag_4\n      jumpi\n      dup1\n      0x6d4ce63c\n      eq\n      tag_5\n      jumpi\n      dup1\n      0xb3bcfa82\n      eq\n      tag_6\n      jumpi\n    tag_2:\n      0x00\n      dup1\n      revert\n        /* \"\\xe5\\xa6\\x82\\xe4\\xbd\\x95\\xe4\\xbd\\xbf\\xe7\\x94\\xa8Solidity/FirstApp.sol\":175:192  uint public count */\n    tag_3:\n      tag_7\n      tag_8\n      jump\t// in\n    tag_7:\n      mload(0x40)\n      tag_9\n      swap2\n      swap1\n      tag_10\n      jump\t// in\n    tag_9:\n      mload(0x40)\n      dup1\n      swap2\n      sub\n      swap1\n      return\n        /* \"\\xe5\\xa6\\x82\\xe4\\xbd\\x95\\xe4\\xbd\\xbf\\xe7\\x94\\xa8Solidity/FirstApp.sol\":281:329  function inc() public{... */\n    tag_4:\n      tag_11\n      tag_12\n      jump\t// in\n    tag_11:\n      stop\n        /* \"\\xe5\\xa6\\x82\\xe4\\xbd\\x95\\xe4\\xbd\\xbf\\xe7\\x94\\xa8Solidity/FirstApp.sol\":201:273  function get() public view returns (uint){... */\n    tag_5:\n      tag_13\n      tag_14\n      jump\t// in\n    tag_13:\n      mload(0x40)\n      tag_15\n      swap2\n      swap1\n      tag_10\n      jump\t// in\n    tag_15:\n      mload(0x40)\n      dup1\n      swap2\n      sub\n      swap1\n      return\n        /* \"\\xe5\\xa6\\x82\\xe4\\xbd\\x95\\xe4\\xbd\\xbf\\xe7\\x94\\xa8Solidity/FirstApp.sol\":337:386  function dec() public {... */\n    tag_6:\n      tag_16\n      tag_17\n      jump\t// in\n    tag_16:\n      stop\n        /* \"\\xe5\\xa6\\x82\\xe4\\xbd\\x95\\xe4\\xbd\\xbf\\xe7\\x94\\xa8Solidity/FirstApp.sol\":175:192  uint public count */\n    tag_8:\n      sload(0x00)\n      dup2\n      jump\t// out\n        /* \"\\xe5\\xa6\\x82\\xe4\\xbd\\x95\\xe4\\xbd\\xbf\\xe7\\x94\\xa8Solidity/FirstApp.sol\":281:329  function inc() public{... */\n    tag_12:\n        /* \"\\xe5\\xa6\\x82\\xe4\\xbd\\x95\\xe4\\xbd\\xbf\\xe7\\x94\\xa8Solidity/FirstApp.sol\":313:318  count */\n      0x00\n      dup1\n        /* \"\\xe5\\xa6\\x82\\xe4\\xbd\\x95\\xe4\\xbd\\xbf\\xe7\\x94\\xa8Solidity/FirstApp.sol\":313:321  count ++ */\n      dup2\n      sload\n      dup1\n      swap3\n      swap2\n      swap1\n      tag_19\n      swap1\n      tag_20\n      jump\t// in\n    tag_19:\n      swap2\n      swap1\n      pop\n      sstore\n      pop\n        /* \"\\xe5\\xa6\\x82\\xe4\\xbd\\x95\\xe4\\xbd\\xbf\\xe7\\x94\\xa8Solidity/FirstApp.sol\":281:329  function inc() public{... */\n      jump\t// out\n        /* \"\\xe5\\xa6\\x82\\xe4\\xbd\\x95\\xe4\\xbd\\xbf\\xe7\\x94\\xa8Solidity/FirstApp.sol\":201:273  function get() public view returns (uint){... */\n    tag_14:\n        /* \"\\xe5\\xa6\\x82\\xe4\\xbd\\x95\\xe4\\xbd\\xbf\\xe7\\x94\\xa8Solidity/FirstApp.sol\":237:241  uint */\n      0x00\n        /* \"\\xe5\\xa6\\x82\\xe4\\xbd\\x95\\xe4\\xbd\\xbf\\xe7\\x94\\xa8Solidity/FirstApp.sol\":260:265  count */\n      dup1\n      sload\n        /* \"\\xe5\\xa6\\x82\\xe4\\xbd\\x95\\xe4\\xbd\\xbf\\xe7\\x94\\xa8Solidity/FirstApp.sol\":253:265  return count */\n      swap1\n      pop\n        /* \"\\xe5\\xa6\\x82\\xe4\\xbd\\x95\\xe4\\xbd\\xbf\\xe7\\x94\\xa8Solidity/FirstApp.sol\":201:273  function get() public view returns (uint){... */\n      swap1\n      jump\t// out\n        /* \"\\xe5\\xa6\\x82\\xe4\\xbd\\x95\\xe4\\xbd\\xbf\\xe7\\x94\\xa8Solidity/FirstApp.sol\":337:386  function dec() public {... */\n    tag_17:\n        /* \"\\xe5\\xa6\\x82\\xe4\\xbd\\x95\\xe4\\xbd\\xbf\\xe7\\x94\\xa8Solidity/FirstApp.sol\":370:375  count */\n      0x00\n      dup1\n        /* \"\\xe5\\xa6\\x82\\xe4\\xbd\\x95\\xe4\\xbd\\xbf\\xe7\\x94\\xa8Solidity/FirstApp.sol\":370:378  count -- */\n      dup2\n      sload\n      dup1\n      swap3\n      swap2\n      swap1\n      tag_23\n      swap1\n      tag_24\n      jump\t// in\n    tag_23:\n      swap2\n      swap1\n      pop\n      sstore\n      pop\n        /* \"\\xe5\\xa6\\x82\\xe4\\xbd\\x95\\xe4\\xbd\\xbf\\xe7\\x94\\xa8Solidity/FirstApp.sol\":337:386  function dec() public {... */\n      jump\t// out\n        /* \"#utility.yul\":7:84   */\n    tag_25:\n        /* \"#utility.yul\":44:51   */\n      0x00\n        /* \"#utility.yul\":73:78   */\n      dup2\n        /* \"#utility.yul\":62:78   */\n      swap1\n      pop\n        /* \"#utility.yul\":7:84   */\n      swap2\n      swap1\n      pop\n      jump\t// out\n        /* \"#utility.yul\":90:208   */\n    tag_26:\n        /* \"#utility.yul\":177:201   */\n      tag_31\n        /* \"#utility.yul\":195:200   */\n      dup2\n        /* \"#utility.yul\":177:201   */\n      tag_25\n      jump\t// in\n    tag_31:\n        /* \"#utility.yul\":172:175   */\n      dup3\n        /* \"#utility.yul\":165:202   */\n      mstore\n        /* \"#utility.yul\":90:208   */\n      pop\n      pop\n      jump\t// out\n        /* \"#utility.yul\":214:436   */\n    tag_10:\n        /* \"#utility.yul\":307:311   */\n      0x00\n        /* \"#utility.yul\":345:347   */\n      0x20\n        /* \"#utility.yul\":334:343   */\n      dup3\n        /* \"#utility.yul\":330:348   */\n      add\n        /* \"#utility.yul\":322:348   */\n      swap1\n      pop\n        /* \"#utility.yul\":358:429   */\n      tag_33\n        /* \"#utility.yul\":426:427   */\n      0x00\n        /* \"#utility.yul\":415:424   */\n      dup4\n        /* \"#utility.yul\":411:428   */\n      add\n        /* \"#utility.yul\":402:408   */\n      dup5\n        /* \"#utility.yul\":358:429   */\n      tag_26\n      jump\t// in\n    tag_33:\n        /* \"#utility.yul\":214:436   */\n      swap3\n      swap2\n      pop\n      pop\n      jump\t// out\n        /* \"#utility.yul\":442:622   */\n    tag_27:\n        /* \"#utility.yul\":490:567   */\n      0x4e487b7100000000000000000000000000000000000000000000000000000000\n        /* \"#utility.yul\":487:488   */\n      0x00\n        /* \"#utility.yul\":480:568   */\n      mstore\n        /* \"#utility.yul\":587:591   */\n      0x11\n        /* \"#utility.yul\":584:585   */\n      0x04\n        /* \"#utility.yul\":577:592   */\n      mstore\n        /* \"#utility.yul\":611:615   */\n      0x24\n        /* \"#utility.yul\":608:609   */\n      0x00\n        /* \"#utility.yul\":601:616   */\n      revert\n        /* \"#utility.yul\":628:861   */\n    tag_20:\n        /* \"#utility.yul\":667:670   */\n      0x00\n        /* \"#utility.yul\":690:714   */\n      tag_36\n        /* \"#utility.yul\":708:713   */\n      dup3\n        /* \"#utility.yul\":690:714   */\n      tag_25\n      jump\t// in\n    tag_36:\n        /* \"#utility.yul\":681:714   */\n      swap2\n      pop\n        /* \"#utility.yul\":736:802   */\n      0xffffffffffffffffffffffffffffffffffffffffffffffffffffffffffffffff\n        /* \"#utility.yul\":729:734   */\n      dup3\n        /* \"#utility.yul\":726:803   */\n      sub\n        /* \"#utility.yul\":723:826   */\n      tag_37\n      jumpi\n        /* \"#utility.yul\":806:824   */\n      tag_38\n      tag_27\n      jump\t// in\n    tag_38:\n        /* \"#utility.yul\":723:826   */\n    tag_37:\n        /* \"#utility.yul\":853:854   */\n      0x01\n        /* \"#utility.yul\":846:851   */\n      dup3\n        /* \"#utility.yul\":842:855   */\n      add\n        /* \"#utility.yul\":835:855   */\n      swap1\n      pop\n        /* \"#utility.yul\":628:861   */\n      swap2\n      swap1\n      pop\n      jump\t// out\n        /* \"#utility.yul\":867:1038   */\n    tag_24:\n        /* \"#utility.yul\":906:909   */\n      0x00\n        /* \"#utility.yul\":929:953   */\n      tag_40\n        /* \"#utility.yul\":947:952   */\n      dup3\n        /* \"#utility.yul\":929:953   */\n      tag_25\n      jump\t// in\n    tag_40:\n        /* \"#utility.yul\":920:953   */\n      swap2\n      pop\n        /* \"#utility.yul\":975:979   */\n      0x00\n        /* \"#utility.yul\":968:973   */\n      dup3\n        /* \"#utility.yul\":965:980   */\n      sub\n        /* \"#utility.yul\":962:1003   */\n      tag_41\n      jumpi\n        /* \"#utility.yul\":983:1001   */\n      tag_42\n      tag_27\n      jump\t// in\n    tag_42:\n        /* \"#utility.yul\":962:1003   */\n    tag_41:\n        /* \"#utility.yul\":1030:1031   */\n      0x01\n        /* \"#utility.yul\":1023:1028   */\n      dup3\n        /* \"#utility.yul\":1019:1032   */\n      sub\n        /* \"#utility.yul\":1012:1032   */\n      swap1\n      pop\n        /* \"#utility.yul\":867:1038   */\n      swap2\n      swap1\n      pop\n      jump\t// out\n\n    auxdata: 0xa26469706673582212209bb1a640a5f9ff2f59e598103ea43e4ba188baa475caa0b50ac25342aa0b498764736f6c634300081a0033\n}\n",
				"bytecode": {
					"linkReferences": {},
					"object": "6080604052348015600e575f80fd5b506101dd8061001c5f395ff3fe608060405234801561000f575f80fd5b506004361061004a575f3560e01c806306661abd1461004e578063371303c01461006c5780636d4ce63c14610076578063b3bcfa8214610094575b5f80fd5b61005661009e565b60405161006391906100f3565b60405180910390f35b6100746100a3565b005b61007e6100bb565b60405161008b91906100f3565b60405180910390f35b61009c6100c3565b005b5f5481565b5f808154809291906100b490610139565b9190505550565b5f8054905090565b5f808154809291906100d490610180565b9190505550565b5f819050919050565b6100ed816100db565b82525050565b5f6020820190506101065f8301846100e4565b92915050565b7f4e487b71000000000000000000000000000000000000000000000000000000005f52601160045260245ffd5b5f610143826100db565b91507fffffffffffffffffffffffffffffffffffffffffffffffffffffffffffffffff82036101755761017461010c565b5b600182019050919050565b5f61018a826100db565b91505f820361019c5761019b61010c565b5b60018203905091905056fea26469706673582212209bb1a640a5f9ff2f59e598103ea43e4ba188baa475caa0b50ac25342aa0b498764736f6c634300081a0033",
					"opcodes": "PUSH1 0x80 PUSH1 0x40 MSTORE CALLVALUE DUP1 ISZERO PUSH1 0xE JUMPI PUSH0 DUP1 REVERT JUMPDEST POP PUSH2 0x1DD DUP1 PUSH2 0x1C PUSH0 CODECOPY PUSH0 RETURN INVALID PUSH1 0x80 PUSH1 0x40 MSTORE CALLVALUE DUP1 ISZERO PUSH2 0xF JUMPI PUSH0 DUP1 REVERT JUMPDEST POP PUSH1 0x4 CALLDATASIZE LT PUSH2 0x4A JUMPI PUSH0 CALLDATALOAD PUSH1 0xE0 SHR DUP1 PUSH4 0x6661ABD EQ PUSH2 0x4E JUMPI DUP1 PUSH4 0x371303C0 EQ PUSH2 0x6C JUMPI DUP1 PUSH4 0x6D4CE63C EQ PUSH2 0x76 JUMPI DUP1 PUSH4 0xB3BCFA82 EQ PUSH2 0x94 JUMPI JUMPDEST PUSH0 DUP1 REVERT JUMPDEST PUSH2 0x56 PUSH2 0x9E JUMP JUMPDEST PUSH1 0x40 MLOAD PUSH2 0x63 SWAP2 SWAP1 PUSH2 0xF3 JUMP JUMPDEST PUSH1 0x40 MLOAD DUP1 SWAP2 SUB SWAP1 RETURN JUMPDEST PUSH2 0x74 PUSH2 0xA3 JUMP JUMPDEST STOP JUMPDEST PUSH2 0x7E PUSH2 0xBB JUMP JUMPDEST PUSH1 0x40 MLOAD PUSH2 0x8B SWAP2 SWAP1 PUSH2 0xF3 JUMP JUMPDEST PUSH1 0x40 MLOAD DUP1 SWAP2 SUB SWAP1 RETURN JUMPDEST PUSH2 0x9C PUSH2 0xC3 JUMP JUMPDEST STOP JUMPDEST PUSH0 SLOAD DUP2 JUMP JUMPDEST PUSH0 DUP1 DUP2 SLOAD DUP1 SWAP3 SWAP2 SWAP1 PUSH2 0xB4 SWAP1 PUSH2 0x139 JUMP JUMPDEST SWAP2 SWAP1 POP SSTORE POP JUMP JUMPDEST PUSH0 DUP1 SLOAD SWAP1 POP SWAP1 JUMP JUMPDEST PUSH0 DUP1 DUP2 SLOAD DUP1 SWAP3 SWAP2 SWAP1 PUSH2 0xD4 SWAP1 PUSH2 0x180 JUMP JUMPDEST SWAP2 SWAP1 POP SSTORE POP JUMP JUMPDEST PUSH0 DUP2 SWAP1 POP SWAP2 SWAP1 POP JUMP JUMPDEST PUSH2 0xED DUP2 PUSH2 0xDB JUMP JUMPDEST DUP3 MSTORE POP POP JUMP JUMPDEST PUSH0 PUSH1 0x20 DUP3 ADD SWAP1 POP PUSH2 0x106 PUSH0 DUP4 ADD DUP5 PUSH2 0xE4 JUMP JUMPDEST SWAP3 SWAP2 POP POP JUMP JUMPDEST PUSH32 0x4E487B7100000000000000000000000000000000000000000000000000000000 PUSH0 MSTORE PUSH1 0x11 PUSH1 0x4 MSTORE PUSH1 0x24 PUSH0 REVERT JUMPDEST PUSH0 PUSH2 0x143 DUP3 PUSH2 0xDB JUMP JUMPDEST SWAP2 POP PUSH32 0xFFFFFFFFFFFFFFFFFFFFFFFFFFFFFFFFFFFFFFFFFFFFFFFFFFFFFFFFFFFFFFFF DUP3 SUB PUSH2 0x175 JUMPI PUSH2 0x174 PUSH2 0x10C JUMP JUMPDEST JUMPDEST PUSH1 0x1 DUP3 ADD SWAP1 POP SWAP2 SWAP1 POP JUMP JUMPDEST PUSH0 PUSH2 0x18A DUP3 PUSH2 0xDB JUMP JUMPDEST SWAP2 POP PUSH0 DUP3 SUB PUSH2 0x19C JUMPI PUSH2 0x19B PUSH2 0x10C JUMP JUMPDEST JUMPDEST PUSH1 0x1 DUP3 SUB SWAP1 POP SWAP2 SWAP1 POP JUMP INVALID LOG2 PUSH5 0x6970667358 0x22 SLT KECCAK256 SWAP12 0xB1 0xA6 BLOCKHASH 0xA5 0xF9 SELFDESTRUCT 0x2F MSIZE 0xE5 SWAP9 LT RETURNDATACOPY LOG4 RETURNDATACOPY 0x4B LOG1 DUP9 0xBA LOG4 PUSH22 0xCAA0B50AC25342AA0B498764736F6C634300081A0033 "
				},
				"gasEstimates": {
					"creation": {
						"codeDepositCost": "95400",
						"executionCost": "139",
						"totalCost": "95539"
					},
					"external": {
						"count()": "2402",
						"dec()": "24540",
						"get()": "2454",
						"inc()": "24497"
					}
				},
				"methodIdentifiers": {
					"count()": "06661abd",
					"dec()": "b3bcfa82",
					"get()": "6d4ce63c",
					"inc()": "371303c0"
				}
			},
			"storageLayout": {
				"storage": [
					{
						"astId": 3,
						"contract": "如何使用Solidity/FirstApp.sol:FirstApp",
						"label": "count",
						"offset": 0,
						"slot": "0",
						"type": "t_uint256"
					}
				],
				"types": {
					"t_uint256": {
						"encoding": "inplace",
						"label": "uint256",
						"numberOfBytes": "32"
					}
				}
			},
			"userdoc": {
				"kind": "user",
				"methods": {},
				"version": 1
			}
		}
	}
}