{
	"data": {
		"bytecode": {
			"linkReferences": {},
			"object": "6080604052348015600e575f80fd5b5060145f81905550601460018190555061028a8061002b5f395ff3fe608060405234801561000f575f80fd5b5060043610610055575f3560e01c80631ab06ee5146100595780639507d39a146100755780639d82251014610091578063a54580f2146100af578063c20906ac146100cd575b5f80fd5b610073600480360381019061006e9190610163565b6100eb565b005b61008f600480360381019061008a91906101a1565b6100fc565b005b61009961011b565b6040516100a691906101db565b60405180910390f35b6100b7610121565b6040516100c491906101db565b60405180910390f35b6100d5610127565b6040516100e291906101db565b60405180910390f35b815f81905550806001819055505050565b806001819055505f546001546101129190610221565b60028190555050565b60025481565b60015481565b5f5481565b5f80fd5b5f819050919050565b61014281610130565b811461014c575f80fd5b50565b5f8135905061015d81610139565b92915050565b5f80604083850312156101795761017861012c565b5b5f6101868582860161014f565b92505060206101978582860161014f565b9150509250929050565b5f602082840312156101b6576101b561012c565b5b5f6101c38482850161014f565b91505092915050565b6101d581610130565b82525050565b5f6020820190506101ee5f8301846101cc565b92915050565b7f4e487b71000000000000000000000000000000000000000000000000000000005f52601160045260245ffd5b5f61022b82610130565b915061023683610130565b925082820190508082111561024e5761024d6101f4565b5b9291505056fea2646970667358221220ef711e870007354d1831153adbdd8da3b1674957a60d6f313d3aa332b5486de764736f6c634300081a0033",
			"opcodes": "PUSH1 0x80 PUSH1 0x40 MSTORE CALLVALUE DUP1 ISZERO PUSH1 0xE JUMPI PUSH0 DUP1 REVERT JUMPDEST POP PUSH1 0x14 PUSH0 DUP2 SWAP1 SSTORE POP PUSH1 0x14 PUSH1 0x1 DUP2 SWAP1 SSTORE POP PUSH2 0x28A DUP1 PUSH2 0x2B PUSH0 CODECOPY PUSH0 RETURN INVALID PUSH1 0x80 PUSH1 0x40 MSTORE CALLVALUE DUP1 ISZERO PUSH2 0xF JUMPI PUSH0 DUP1 REVERT JUMPDEST POP PUSH1 0x4 CALLDATASIZE LT PUSH2 0x55 JUMPI PUSH0 CALLDATALOAD PUSH1 0xE0 SHR DUP1 PUSH4 0x1AB06EE5 EQ PUSH2 0x59 JUMPI DUP1 PUSH4 0x9507D39A EQ PUSH2 0x75 JUMPI DUP1 PUSH4 0x9D822510 EQ PUSH2 0x91 JUMPI DUP1 PUSH4 0xA54580F2 EQ PUSH2 0xAF JUMPI DUP1 PUSH4 0xC20906AC EQ PUSH2 0xCD JUMPI JUMPDEST PUSH0 DUP1 REVERT JUMPDEST PUSH2 0x73 PUSH1 0x4 DUP1 CALLDATASIZE SUB DUP2 ADD SWAP1 PUSH2 0x6E SWAP2 SWAP1 PUSH2 0x163 JUMP JUMPDEST PUSH2 0xEB JUMP JUMPDEST STOP JUMPDEST PUSH2 0x8F PUSH1 0x4 DUP1 CALLDATASIZE SUB DUP2 ADD SWAP1 PUSH2 0x8A SWAP2 SWAP1 PUSH2 0x1A1 JUMP JUMPDEST PUSH2 0xFC JUMP JUMPDEST STOP JUMPDEST PUSH2 0x99 PUSH2 0x11B JUMP JUMPDEST PUSH1 0x40 MLOAD PUSH2 0xA6 SWAP2 SWAP1 PUSH2 0x1DB JUMP JUMPDEST PUSH1 0x40 MLOAD DUP1 SWAP2 SUB SWAP1 RETURN JUMPDEST PUSH2 0xB7 PUSH2 0x121 JUMP JUMPDEST PUSH1 0x40 MLOAD PUSH2 0xC4 SWAP2 SWAP1 PUSH2 0x1DB JUMP JUMPDEST PUSH1 0x40 MLOAD DUP1 SWAP2 SUB SWAP1 RETURN JUMPDEST PUSH2 0xD5 PUSH2 0x127 JUMP JUMPDEST PUSH1 0x40 MLOAD PUSH2 0xE2 SWAP2 SWAP1 PUSH2 0x1DB JUMP JUMPDEST PUSH1 0x40 MLOAD DUP1 SWAP2 SUB SWAP1 RETURN JUMPDEST DUP2 PUSH0 DUP2 SWAP1 SSTORE POP DUP1 PUSH1 0x1 DUP2 SWAP1 SSTORE POP POP POP JUMP JUMPDEST DUP1 PUSH1 0x1 DUP2 SWAP1 SSTORE POP PUSH0 SLOAD PUSH1 0x1 SLOAD PUSH2 0x112 SWAP2 SWAP1 PUSH2 0x221 JUMP JUMPDEST PUSH1 0x2 DUP2 SWAP1 SSTORE POP POP JUMP JUMPDEST PUSH1 0x2 SLOAD DUP2 JUMP JUMPDEST PUSH1 0x1 SLOAD DUP2 JUMP JUMPDEST PUSH0 SLOAD DUP2 JUMP JUMPDEST PUSH0 DUP1 REVERT JUMPDEST PUSH0 DUP2 SWAP1 POP SWAP2 SWAP1 POP JUMP JUMPDEST PUSH2 0x142 DUP2 PUSH2 0x130 JUMP JUMPDEST DUP2 EQ PUSH2 0x14C JUMPI PUSH0 DUP1 REVERT JUMPDEST POP JUMP JUMPDEST PUSH0 DUP2 CALLDATALOAD SWAP1 POP PUSH2 0x15D DUP2 PUSH2 0x139 JUMP JUMPDEST SWAP3 SWAP2 POP POP JUMP JUMPDEST PUSH0 DUP1 PUSH1 0x40 DUP4 DUP6 SUB SLT ISZERO PUSH2 0x179 JUMPI PUSH2 0x178 PUSH2 0x12C JUMP JUMPDEST JUMPDEST PUSH0 PUSH2 0x186 DUP6 DUP3 DUP7 ADD PUSH2 0x14F JUMP JUMPDEST SWAP3 POP POP PUSH1 0x20 PUSH2 0x197 DUP6 DUP3 DUP7 ADD PUSH2 0x14F JUMP JUMPDEST SWAP2 POP POP SWAP3 POP SWAP3 SWAP1 POP JUMP JUMPDEST PUSH0 PUSH1 0x20 DUP3 DUP5 SUB SLT ISZERO PUSH2 0x1B6 JUMPI PUSH2 0x1B5 PUSH2 0x12C JUMP JUMPDEST JUMPDEST PUSH0 PUSH2 0x1C3 DUP5 DUP3 DUP6 ADD PUSH2 0x14F JUMP JUMPDEST SWAP2 POP POP SWAP3 SWAP2 POP POP JUMP JUMPDEST PUSH2 0x1D5 DUP2 PUSH2 0x130 JUMP JUMPDEST DUP3 MSTORE POP POP JUMP JUMPDEST PUSH0 PUSH1 0x20 DUP3 ADD SWAP1 POP PUSH2 0x1EE PUSH0 DUP4 ADD DUP5 PUSH2 0x1CC JUMP JUMPDEST SWAP3 SWAP2 POP POP JUMP JUMPDEST PUSH32 0x4E487B7100000000000000000000000000000000000000000000000000000000 PUSH0 MSTORE PUSH1 0x11 PUSH1 0x4 MSTORE PUSH1 0x24 PUSH0 REVERT JUMPDEST PUSH0 PUSH2 0x22B DUP3 PUSH2 0x130 JUMP JUMPDEST SWAP2 POP PUSH2 0x236 DUP4 PUSH2 0x130 JUMP JUMPDEST SWAP3 POP DUP3 DUP3 ADD SWAP1 POP DUP1 DUP3 GT ISZERO PUSH2 0x24E JUMPI PUSH2 0x24D PUSH2 0x1F4 JUMP JUMPDEST JUMPDEST SWAP3 SWAP2 POP POP JUMP INVALID LOG2 PUSH5 0x6970667358 0x22 SLT KECCAK256 0xEF PUSH18 0x1E870007354D1831153ADBDD8DA3B1674957 0xA6 0xD PUSH16 0x313D3AA332B5486DE764736F6C634300 ADDMOD BYTE STOP CALLER "
		},
		"gasEstimates": {
			"creation": {
				"codeDepositCost": "130000",
				"executionCost": "44402",
				"totalCost": "174402"
			},
			"external": {
				"batteryLevel()": "2447",
				"drive()": "2469",
				"get(uint256)": "infinite",
				"set(uint256,uint256)": "infinite",
				"speed()": "2490"
			}
		},
		"methodIdentifiers": {
			"batteryLevel()": "9d822510",
			"drive()": "a54580f2",
			"get(uint256)": "9507d39a",
			"set(uint256,uint256)": "1ab06ee5",
			"speed()": "c20906ac"
		}
	},
	"abi": [
		{
			"inputs": [],
			"name": "batteryLevel",
			"outputs": [
				{
					"internalType": "uint256",
					"name": "",
					"type": "uint256"
				}
			],
			"stateMutability": "view",
			"type": "function"
		},
		{
			"inputs": [],
			"name": "drive",
			"outputs": [
				{
					"internalType": "uint256",
					"name": "",
					"type": "uint256"
				}
			],
			"stateMutability": "view",
			"type": "function"
		},
		{
			"inputs": [
				{
					"internalType": "uint256",
					"name": "_drive",
					"type": "uint256"
				}
			],
			"name": "get",
			"outputs": [],
			"stateMutability": "nonpayable",
			"type": "function"
		},
		{
			"inputs": [
				{
					"internalType": "uint256",
					"name": "_speed",
					"type": "uint256"
				},
				{
					"internalType": "uint256",
					"name": "_drive",
					"type": "uint256"
				}
			],
			"name": "set",
			"outputs": [],
			"stateMutability": "nonpayable",
			"type": "function"
		},
		{
			"inputs": [],
			"name": "speed",
			"outputs": [
				{
					"internalType": "uint256",
					"name": "",
					"type": "uint256"
				}
			],
			"stateMutability": "view",
			"type": "function"
		}
	]
}